:100000000C9462000C947F000C947F000C947F0091
:100010000C947F000C947F000C947F000C947F0064
:100020000C947F000C947F000C947F000C947F0054
:100030000C947F000C947F000C947F000C947F0044
:100040000C94CA020C947F000C947F000C947F00E7
:100050000C947F000C947F000C947F000C947F0024
:100060000C947F000C947F00000000002300260009
:10007000290000000000240027002A0000000000E2
:10008000250028002B0004040404040404040202D4
:100090000202020203030303030301020408102007
:1000A0004080010204081020010204081020000012
:1000B0000008000201000003040700000000000027
:1000C0000000080511241FBECFEFD8E0DEBFCDBF72
:1000D00021E0A0E0B1E001C01D92AD33B207E1F72D
:1000E00010E0C2E6D0E004C02197FE010E94410763
:1000F000C136D107C9F70E9414030C947D070C94F4
:100100000000833081F028F4813099F08230A9F02A
:1001100008958730A9F08830C9F08430B1F4809117
:1001200080008F7D03C0809180008F778093800056
:10013000089584B58F7784BD089584B58F7DFBCFF6
:100140008091B0008F778093B00008958091B000C7
:100150008F7DF9CF1F93CF93DF93282F30E0F901E4
:10016000E255FF4F8491F901E656FF4FD491F90112
:10017000EA57FF4FC491CC23A9F0162F81110E949A
:100180008100EC2FF0E0EE0FFF1FE458FF4FA59128
:10019000B4918FB7F894EC91111108C0D095DE237B
:1001A000DC938FBFDF91CF911F910895DE2BF8CFA5
:1001B000CF93DF9390E0FC01E656FF4F24918A57DE
:1001C0009F4FFC0184918823D1F090E0880F991F04
:1001D000FC01EE58FF4FA591B491FC01E458FF4F8C
:1001E000C591D49161110EC09FB7F8948C91E22F04
:1001F000E0958E238C932881E223E8839FBFDF91D3
:10020000CF9108958FB7F894EC91E22BEC938FBFC8
:10021000F6CF3FB7F8948091390190913A01A091BF
:100220003B01B0913C0126B5A89B05C02F3F19F0BA
:100230000196A11DB11D3FBFBA2FA92F982F882766
:10024000BC01CD01620F711D811D911D42E0660F41
:10025000771F881F991F4A95D1F708958F929F9213
:10026000AF92BF92CF92DF92EF92FF924B015C016F
:100270000E9409016B017C010E9409016C197D0932
:100280008E099F09683E734081059105A8F321E01E
:10029000821A9108A108B10888EEC80E83E0D81E22
:1002A000E11CF11C81149104A104B10429F7FF9011
:1002B000EF90DF90CF90BF90AF909F908F90089578
:1002C0000F931F93CF93DF93EC018B018885998562
:1002D000029749F46130710509F436C04CF560E0CD
:1002E0000115110591F188859985049749F401302C
:1002F000110509F451C09CF50115110509F43BC025
:1003000088859985059709F0C5C00A30110508F060
:10031000C1C0F801E257FE4F0C944107E001EA0129
:10032000F8010A02220224022A023402420248028E
:100330006230710591F060E003301105A1F68C8503
:100340000E94AA0060E005C061E08C850E94AA00BE
:1003500061E08E850E94AA00C6CF61E0F0CF023036
:10036000110501F10330110559F661E08C850E94F9
:10037000AA0060E01CC061E08C850E94AA0060E0D9
:100380008E850E94AA0061E088890E94AA0060E030
:100390008A890E94AA00B4CF60E08C850E94AA00DE
:1003A00061E0EECF60E08C850E94AA0061E08E855E
:1003B0000E94AA0060E088890E94AA0061E0E8CF5C
:1003C00060E08C850E94AA0061E08E850E94AA00F0
:1003D00061E009C060E08C850E94AA0061E08E8522
:1003E0000E94AA0060E088890E94AA0060E00DC017
:1003F00060E08C850E94AA0061E08E850E94AA00C0
:1004000060E088890E94AA0061E08A890E94AA00AF
:1004100061E011C060E08C850E94AA0061E08E85D9
:100420000E94AA0060E088890E94AA0061E08A898F
:100430000E94AA0060E08C89DF91CF911F910F91FB
:100440000C94AA0061E0E7CF61E08C850E94AA00CD
:1004500060E0E5CF61E08C850E94AA0060E08E85B7
:100460000E94AA0061E0DFCF61E08C850E94AA00B3
:1004700060E08E850E94AA0061E088890E94AA003F
:1004800060E0D5CF61E08C850E94AA0060E09DCF3E
:1004900060E0F9CFDF91CF911F910F9108954F92B6
:1004A0005F926F927F928F929F92AF92BF92CF9204
:1004B000DF92EF92FF920F931F93CF93DF93EC01A4
:1004C0008B01672B21F081E090E09983888384E0A1
:1004D000E82EF12C9AE0C92ED12C0115110509F452
:1004E00048C00E9409018E889F88A88CB98C2B0176
:1004F0003C01481859086A087B088A809B80AC80B8
:10050000BD80481459046A047B0438F36E8B7F8BDA
:10051000888F998F8A859B85288139812130310583
:10052000E1F401969B878A872E813F81821793078A
:1005300011F41B861A86015011098A859B8528852E
:100540003985B6012530310509F0B7010E940E0743
:10055000BC01CE010E946001C0CF892B21F48E81A5
:100560009F819B878A878A859B8501979B878A873E
:10057000E2CFDF91CF911F910F91FF90EF90DF902D
:10058000CF90BF90AF909F908F907F906F905F9033
:100590004F9008951F920F920FB60F9211242F9330
:1005A0003F938F939F93AF93BF9380913501909129
:1005B0003601A0913701B09138013091340123E028
:1005C000230F2D3758F50196A11DB11D209334013D
:1005D0008093350190933601A0933701B093380191
:1005E0008091390190913A01A0913B01B0913C0179
:1005F0000196A11DB11D8093390190933A01A093FA
:100600003B01B0933C01BF91AF919F918F913F917E
:100610002F910F900FBE0F901F90189526E8230F73
:100620000296A11DB11DD2CF789484B5826084BD9D
:1006300084B5816084BD85B5826085BD85B58160E6
:1006400085BD80916E00816080936E001092810064
:10065000809181008260809381008091810081601F
:1006600080938100809180008160809380008091E0
:10067000B10084608093B1008091B000816080936C
:10068000B00080917A00846080937A0080917A0033
:10069000826080937A0080917A00816080937A00F2
:1006A00080917A00806880937A001092C10061E0A6
:1006B00080E00E94D80061E08DE00E94D80061E0F7
:1006C0008CE00E94D80061E08AE00E94D80061E0DE
:1006D00089E00E94D80061E088E00E94D80061E0D3
:1006E0008FE00E94D80061E087E00E94D80061E0BE
:1006F00086E00E94D80061E085E00E94D80061E0B9
:1007000082E00E94D80060E08BE00E94D800209137
:10071000200130912101032E000C440B550BC12CFC
:1007200067E8D62E63E9E62E63E0F62EC701B60130
:100730000E94220774E6872E912CA12CB12CCA01AD
:10074000B901A50194010E94220720931C01309356
:100750001D0140931E0150931F012091060130910D
:100760000701032E000C440B550BC701B6010E9474
:100770002207CA01B901A50194010E942207209312
:100780000201309303014093040150930501C9EB2A
:10079000D0E005EA10E0E1E9EE2EE0E0FE2EF6E41E
:1007A000AF2EA0E0CA2EA0E0DA2EFE018491F8015F
:1007B000B490F7019490992009F423C181110E940B
:1007C0008100E92DF0E0EE0FFF1FE859FF4FA591E2
:1007D000B4918C91B82209F414C161E08FE00E94B9
:1007E000AA0061E080E00E94AA0061E08DE00E9422
:1007F000AA0060E177E280E090E00E942E0160E0D4
:1008000080E00E94AA0060E08DE00E94AA0068EEED
:1008100073E080E090E00E942E0161E080E00E94A1
:10082000AA0061E08CE00E94AA009AE0892E912C37
:1008300068EC70E08AE191E00E944F0265E070E0B0
:1008400080E090E00E942E01F1E08F1A910881F77C
:1008500070E060E08AE191E00E944F0264E670E09F
:1008600080E090E00E942E0160E080E00E94AA00FB
:1008700060E08CE00E94AA0068EE73E080E090E007
:100880000E942E0161E08AE00E94AA0061E088E0F7
:100890000E94AA0061E089E00E94AA0060E27EE472
:1008A00080E090E00E942E0160E08AE00E94AA00B1
:1008B00060E088E00E94AA0060E089E00E94AA004F
:1008C00068EE73E080E090E00E942E01A0927C0030
:1008D00080917A00806480937A0080917A0086FD0E
:1008E000FCCF6091780070917900072E000C880B86
:1008F000990B0E94EC0528E539E34CE950E40E948D
:100900007D0620E030E040E251E40E94780520E0DE
:1009100030E044E152E40E94780687FF05C061E0C0
:100920008FE00E94AA00D2CF60E177E280E090E001
:100930000E942E018EE1882E912C68EC70E080E000
:1009400091E00E944F0265E070E080E090E00E943C
:100950002E0181E0881A910881F770E060E080E064
:1009600091E00E944F0264E670E080E090E00E9417
:100970002E0161E087E00E94AA0061E086E00E940B
:10098000AA0061E089E00E94AA0060E27EE480E0C3
:1009900090E00E942E0160E087E00E94AA0060E0E3
:1009A00086E00E94AA0060E089E00E94AA0068EE4A
:1009B00073E080E090E00E942E0161E085E00E94FB
:1009C000AA0061E082E00E94AA0061E089E00E9442
:1009D000AA0060E27EE480E090E00E942E0160E0E8
:1009E00085E00E94AA0060E082E00E94AA0060E028
:1009F00089E00E94AA0068EE73E080E090E00E9427
:100A00002E01C114D10409F4D0CE0E940000CDCE35
:100A1000EF92FF920F931F93CF93DF93CAE1D1E040
:100A20001B861A86198218821E8A1F8A188E198EB2
:100A300088ECE82EF12CFF82EE8281E190E09D8728
:100A40008C8783E190E09F878E8782E190E0998B8D
:100A5000888B80E190E09B8B8A8B61E081E10E9432
:100A6000D80061E08E850E94D80061E088890E94EC
:100A7000D80061E08A890E94D8001D8A1C8A04E09F
:100A800010E019870887C0E0D1E01B861A8619821A
:100A900018821E8A1F8A188E198EFF82EE828EE0BF
:100AA00090E09D878C871F870E8783E090E0998B6D
:100AB000888B81E090E09B8B8A8B61E08EE00E94C6
:100AC000D80061E08E850E94D80061E088890E948C
:100AD000D80061E08A890E94D8001D8A1C8A198783
:100AE0000887DF91CF911F910F91FF90EF900895AC
:100AF0000E948C050C943E060E94370658F00E9416
:100B0000300640F029F45F3F29F00C94270651117C
:100B10000C9472060C942D060E944F0668F39923DC
:100B2000B1F3552391F3951B550BBB27AA276217E9
:100B30007307840738F09F5F5F4F220F331F441FF6
:100B4000AA1FA9F335D00E2E3AF0E0E832D091502A
:100B50005040E695001CCAF72BD0FE2F29D0660F17
:100B6000771F881FBB1F261737074807AB07B0E85A
:100B700009F0BB0B802DBF01FF2793585F4F3AF060
:100B80009E3F510578F00C9427060C9472065F3F47
:100B9000E4F3983ED4F3869577956795B795F795E6
:100BA0009F5FC9F7880F911D9695879597F90895CE
:100BB000E1E0660F771F881FBB1F6217730784076A
:100BC000BA0720F0621B730B840BBA0BEE1F88F779
:100BD000E0950895E89409C097FB3EF490958095C0
:100BE000709561957F4F8F4F9F4F9923A9F0F92FF3
:100BF00096E9BB279395F695879577956795B79571
:100C0000F111F8CFFAF4BB0F11F460FF1BC06F5F56
:100C10007F4F8F4F9F4F16C0882311F096E911C068
:100C2000772321F09EE8872F762F05C0662371F089
:100C300096E8862F70E060E02AF09A95660F771F9D
:100C4000881FDAF7880F9695879597F9089597F991
:100C50009F6780E870E060E008959FEF80EC089562
:100C600000240A941616170618060906089500248B
:100C70000A9412161306140605060895092E039405
:100C8000000C11F4882352F0BB0F40F4BF2B11F479
:100C900060FF04C06F5F7F4F8F4F9F4F089557FDD8
:100CA0009058440F551F59F05F3F71F04795880FDA
:100CB00097FB991F61F09F3F79F087950895121671
:100CC00013061406551FF2CF4695F1DF08C016161D
:100CD00017061806991FF1CF8695710561050894CE
:100CE0000895E894BB2766277727CB0197F90895E5
:100CF0000E94EA0608F48FEF08950E9490060C9473
:100D00003E060E94300638F00E94370620F09523F8
:100D100011F00C9427060C942D0611240C947206E5
:100D20000E944F0670F3959FC1F3950F50E0551F39
:100D3000629FF001729FBB27F00DB11D639FAA2730
:100D4000F00DB11DAA1F649F6627B00DA11D661F7F
:100D5000829F2227B00DA11D621F739FB00DA11DA0
:100D6000621F839FA00D611D221F749F3327A00D5A
:100D7000611D231F849F600D211D822F762F6A2FF6
:100D800011249F5750409AF0F1F088234AF0EE0F5B
:100D9000FF1FBB1F661F771F881F91505040A9F788
:100DA0009E3F510580F00C9427060C9472065F3F1D
:100DB000E4F3983ED4F3869577956795B795F795C4
:100DC000E7959F5FC1F7FE2B880F911D969587953C
:100DD00097F90895990F0008550FAA0BE0E8FEEF68
:100DE00016161706E807F907C0F012161306E407EF
:100DF000F50798F0621B730B840B950B39F40A26E8
:100E000061F0232B242B252B21F408950A2609F4C5
:100E1000A140A6958FEF811D811D089597FB072E98
:100E200016F4009407D077FD09D00E94470707FC0D
:100E300005D03EF4909581959F4F089570956195EA
:100E40007F4F0895052E97FB1EF400940E943907EA
:100E500057FD07D00E945B0707FC03D04EF40C94AB
:100E6000390750954095309521953F4F4F4F5F4F33
:100E7000089590958095709561957F4F8F4F9F4F06
:100E80000895EE0FFF1F0590F491E02D0994AA1B21
:100E9000BB1B51E107C0AA1FBB1FA617B70710F065
:100EA000A61BB70B881F991F5A95A9F78095909597
:100EB000BC01CD010895A1E21A2EAA1BBB1BFD01A6
:100EC0000DC0AA1FBB1FEE1FFF1FA217B307E40729
:100ED000F50720F0A21BB30BE40BF50B661F771F81
:100EE000881F991F1A9469F7609570958095909561
:0E0EF0009B01AC01BD01CF010895F894FFCF26
:00000001FF
